{
  "_format": "hh3-artifact-1",
  "contractName": "L1InteropHandler",
  "sourceName": "contracts/L1InteropCenter.sol",
  "abi": [
    {
      "inputs": [
        {
          "internalType": "address",
          "name": "_bridgehubAddress",
          "type": "address"
        }
      ],
      "stateMutability": "nonpayable",
      "type": "constructor"
    },
    {
      "inputs": [],
      "name": "InvalidProof",
      "type": "error"
    },
    {
      "inputs": [],
      "name": "LegacyBridgeMessageNotSupported",
      "type": "error"
    },
    {
      "inputs": [],
      "name": "ShadowAccountDeploymentFailed",
      "type": "error"
    },
    {
      "inputs": [
        {
          "internalType": "address",
          "name": "l2Sender",
          "type": "address"
        }
      ],
      "name": "WrongL2Sender",
      "type": "error"
    },
    {
      "inputs": [],
      "name": "BRIDGE_HUB",
      "outputs": [
        {
          "internalType": "contract IBridgehubBase",
          "name": "",
          "type": "address"
        }
      ],
      "stateMutability": "view",
      "type": "function"
    },
    {
      "inputs": [
        {
          "internalType": "address",
          "name": "_l2CallerAddress",
          "type": "address"
        }
      ],
      "name": "deployShadowAccount",
      "outputs": [
        {
          "internalType": "address",
          "name": "",
          "type": "address"
        }
      ],
      "stateMutability": "nonpayable",
      "type": "function"
    },
    {
      "inputs": [],
      "name": "l1NativeTokenVault",
      "outputs": [
        {
          "internalType": "contract IL1NativeTokenVault",
          "name": "",
          "type": "address"
        }
      ],
      "stateMutability": "view",
      "type": "function"
    },
    {
      "inputs": [],
      "name": "l2InteropCenterAddress",
      "outputs": [
        {
          "internalType": "address",
          "name": "",
          "type": "address"
        }
      ],
      "stateMutability": "view",
      "type": "function"
    },
    {
      "inputs": [
        {
          "components": [
            {
              "internalType": "uint256",
              "name": "chainId",
              "type": "uint256"
            },
            {
              "internalType": "uint256",
              "name": "l2BatchNumber",
              "type": "uint256"
            },
            {
              "internalType": "uint256",
              "name": "l2MessageIndex",
              "type": "uint256"
            },
            {
              "internalType": "address",
              "name": "l2Sender",
              "type": "address"
            },
            {
              "internalType": "uint16",
              "name": "l2TxNumberInBatch",
              "type": "uint16"
            },
            {
              "internalType": "bytes",
              "name": "message",
              "type": "bytes"
            },
            {
              "internalType": "bytes32[]",
              "name": "merkleProof",
              "type": "bytes32[]"
            }
          ],
          "internalType": "struct FinalizeL1DepositParams",
          "name": "_bundleWithdrawalParams",
          "type": "tuple"
        }
      ],
      "name": "receiveInteropFromL2",
      "outputs": [],
      "stateMutability": "nonpayable",
      "type": "function"
    }
  ],
  "bytecode": "0x6080604052348015600e575f5ffd5b50604051610d15380380610d15833981016040819052602b91604f565b600280546001600160a01b0319166001600160a01b0392909216919091179055607a565b5f60208284031215605e575f5ffd5b81516001600160a01b03811681146073575f5ffd5b9392505050565b610c8e806100875f395ff3fe608060405234801561000f575f5ffd5b5060043610610055575f3560e01c80635d4edca7146100595780636f513211146100885780638bfc39881461009b5780638e4f7e11146100b0578063df950b97146100c3575b5f5ffd5b60025461006c906001600160a01b031681565b6040516001600160a01b03909116815260200160405180910390f35b60015461006c906001600160a01b031681565b6100ae6100a93660046104bc565b6100d5565b005b61006c6100be366004610521565b610124565b5f5461006c906001600160a01b031681565b6100e86100e1826106d7565b5f5f61024d565b5f806100f760a0840184610785565b81019061010491906107cf565b915091505f61011283610124565b905061011e81836103e5565b50505050565b604080516001600160a01b03831660208201525f918291016040516020818303038152906040528051906020012090505f60405180602001610165906104af565b601f1982820381018352601f90910116604081815282516020938401206001600160f81b0319838501526bffffffffffffffffffffffff193060601b16602184015260358301869052605580840182905282518085039091018152607590930190915281519190920120909150806001600160a01b03163b5f03610245575f836040516101f1906104af565b8190604051809103905ff590508015801561020e573d5f5f3e3d5ffd5b509050806001600160a01b0316826001600160a01b03161461024357604051631bd902d960e31b815260040160405180910390fd5b505b949350505050565b60408051606080820183525f80835260208301529181019190915260608401515f61027c6201000060036108eb565b6001600160a01b0316826001600160a01b031614806102b857506102a3618000600a6108eb565b6001600160a01b0316826001600160a01b0316145b9050801580156102c55750835b156102f25760405163636c90db60e01b81526001600160a01b038316600482015260240160405180910390fd5b6040518060600160405280876080015161ffff168152602001866103165783610323565b610323618000600a6108eb565b6001600160a01b03908116825260a08901516020928301526002548951928a01516040808c015160c08d01519151634ce0b68d60e11b81529699505f98509290931695506399c16d1a9461037f9493919291899160040161094a565b602060405180830381865afa15801561039a573d5f5f3e3d5ffd5b505050506040513d601f19601f820116820180604052508101906103be91906109df565b9050806103de576040516309bde33960e01b815260040160405180910390fd5b5050505050565b80515f5b8181101561011e57836001600160a01b031663a8f63c8e848381518110610412576104126109fe565b60200260200101515f015185848151811061042f5761042f6109fe565b60200260200101516020015186858151811061044d5761044d6109fe565b6020026020010151604001516040518463ffffffff1660e01b815260040161047793929190610a12565b5f604051808303815f87803b15801561048e575f5ffd5b505af11580156104a0573d5f5f3e3d5ffd5b505050508060010190506103e9565b61021780610a4283390190565b5f602082840312156104cc575f5ffd5b813567ffffffffffffffff8111156104e2575f5ffd5b820160e081850312156104f3575f5ffd5b9392505050565b6001600160a01b038116811461050e575f5ffd5b50565b803561051c816104fa565b919050565b5f60208284031215610531575f5ffd5b81356104f3816104fa565b634e487b7160e01b5f52604160045260245ffd5b60405160e0810167ffffffffffffffff811182821017156105735761057361053c565b60405290565b6040516060810167ffffffffffffffff811182821017156105735761057361053c565b604051601f8201601f1916810167ffffffffffffffff811182821017156105c5576105c561053c565b604052919050565b803561ffff8116811461051c575f5ffd5b5f82601f8301126105ed575f5ffd5b813567ffffffffffffffff8111156106075761060761053c565b61061a601f8201601f191660200161059c565b81815284602083860101111561062e575f5ffd5b816020850160208301375f918101602001919091529392505050565b5f67ffffffffffffffff8211156106635761066361053c565b5060051b60200190565b5f82601f83011261067c575f5ffd5b813561068f61068a8261064a565b61059c565b8082825260208201915060208360051b8601019250858311156106b0575f5ffd5b602085015b838110156106cd5780358352602092830192016106b5565b5095945050505050565b5f60e082360312156106e7575f5ffd5b6106ef610550565b82358152602080840135908201526040808401359082015261071360608401610511565b6060820152610724608084016105cd565b608082015260a083013567ffffffffffffffff811115610742575f5ffd5b61074e368286016105de565b60a08301525060c083013567ffffffffffffffff81111561076d575f5ffd5b6107793682860161066d565b60c08301525092915050565b5f5f8335601e1984360301811261079a575f5ffd5b83018035915067ffffffffffffffff8211156107b4575f5ffd5b6020019150368190038213156107c8575f5ffd5b9250929050565b5f5f604083850312156107e0575f5ffd5b82356107eb816104fa565b9150602083013567ffffffffffffffff811115610806575f5ffd5b8301601f81018513610816575f5ffd5b803561082461068a8261064a565b8082825260208201915060208360051b850101925087831115610845575f5ffd5b602084015b838110156108dc57803567ffffffffffffffff811115610868575f5ffd5b85016060818b03601f1901121561087d575f5ffd5b610885610579565b6020820135610893816104fa565b815260408201356020820152606082013567ffffffffffffffff8111156108b8575f5ffd5b6108c78c6020838601016105de565b6040830152508452506020928301920161084a565b50809450505050509250929050565b6001600160a01b03818116838216019081111561091657634e487b7160e01b5f52601160045260245ffd5b92915050565b5f81518084528060208401602086015e5f602082860101526020601f19601f83011685010191505092915050565b85815284602082015283604082015260a0606082015261ffff83511660a082015260018060a01b0360208401511660c08201525f6040840151606060e084015261099861010084018261091c565b8381036080850152845180825260208087019350909101905f5b818110156109d05783518352602093840193909201916001016109b2565b50909998505050505050505050565b5f602082840312156109ef575f5ffd5b815180151581146104f3575f5ffd5b634e487b7160e01b5f52603260045260245ffd5b60018060a01b0384168152826020820152606060408201525f610a38606083018461091c565b9594505050505056fe6080604052348015600e575f5ffd5b505f80546001600160a01b031916331790556101ea8061002d5f395ff3fe60806040526004361061002b575f3560e01c8063a6bba12f14610036578063a8f63c8e14610070575f5ffd5b3661003257005b5f5ffd5b348015610041575f5ffd5b505f54610054906001600160a01b031681565b6040516001600160a01b03909116815260200160405180910390f35b34801561007b575f5ffd5b5061008f61008a366004610115565b610091565b005b5f846001600160a01b03168484846040516100ad9291906101a5565b5f6040518083038185875af1925050503d805f81146100e7576040519150601f19603f3d011682016040523d82523d5f602084013e6100ec565b606091505b505090508061010e57604051633204506f60e01b815260040160405180910390fd5b5050505050565b5f5f5f5f60608587031215610128575f5ffd5b84356001600160a01b038116811461013e575f5ffd5b935060208501359250604085013567ffffffffffffffff811115610160575f5ffd5b8501601f81018713610170575f5ffd5b803567ffffffffffffffff811115610186575f5ffd5b876020828401011115610197575f5ffd5b949793965060200194505050565b818382375f910190815291905056fea26469706673582212203c22f2b1d9fb12a40ceabfb48186c162b66add4dfa517979490aa49f7562e66764736f6c634300081c0033a26469706673582212201a6c778afe829f467ab4dd050aa34e9e9ea3a4df72ae318baa1492ff9af550c664736f6c634300081c0033",
  "linkReferences": {},
  "deployedLinkReferences": {},
  "immutableReferences": {},
  "inputSourceName": "project/contracts/L1InteropCenter.sol",
  "buildInfoId": "solc-0_8_28-d8485e3607d750674e5fec509d1616a54871b16a"
}