{
  "_format": "hh3-artifact-1",
  "contractName": "L2InteropCenter",
  "sourceName": "contracts/L2InteropCenter.sol",
  "abi": [
    {
      "inputs": [
        {
          "internalType": "address",
          "name": "_l1InteropHandlerAddress",
          "type": "address"
        }
      ],
      "stateMutability": "nonpayable",
      "type": "constructor"
    },
    {
      "inputs": [],
      "name": "SendBundleToL1Failed",
      "type": "error"
    },
    {
      "inputs": [],
      "name": "l1InteropHandlerAddress",
      "outputs": [
        {
          "internalType": "address",
          "name": "",
          "type": "address"
        }
      ],
      "stateMutability": "view",
      "type": "function"
    },
    {
      "inputs": [
        {
          "internalType": "address",
          "name": "_l2CallerAddress",
          "type": "address"
        }
      ],
      "name": "l1ShadowAccount",
      "outputs": [
        {
          "internalType": "address",
          "name": "",
          "type": "address"
        }
      ],
      "stateMutability": "view",
      "type": "function"
    },
    {
      "inputs": [
        {
          "components": [
            {
              "internalType": "address",
              "name": "target",
              "type": "address"
            },
            {
              "internalType": "uint256",
              "name": "value",
              "type": "uint256"
            },
            {
              "internalType": "bytes",
              "name": "data",
              "type": "bytes"
            }
          ],
          "internalType": "struct ShadowAccountOp[]",
          "name": "shadowAccountOps",
          "type": "tuple[]"
        }
      ],
      "name": "sendBundleToL1",
      "outputs": [],
      "stateMutability": "nonpayable",
      "type": "function"
    },
    {
      "inputs": [],
      "name": "shadowAccountBytecodeHash",
      "outputs": [
        {
          "internalType": "bytes32",
          "name": "",
          "type": "bytes32"
        }
      ],
      "stateMutability": "view",
      "type": "function"
    }
  ],
  "bytecode": "0x6080604052348015600e575f5ffd5b50604051610796380380610796833981016040819052602b916083565b5f80546001600160a01b0319166001600160a01b0383161790556040516052602082016076565b601f1982820381018352601f909101166040528051602091909101206001555060ae565b6102178061057f83390190565b5f602082840312156092575f5ffd5b81516001600160a01b038116811460a7575f5ffd5b9392505050565b6104c4806100bb5f395ff3fe608060405234801561000f575f5ffd5b506004361061004a575f3560e01c806394899c0c1461004e578063a53633be1461006a578063a6bba12f1461007f578063e2ed1caf146100a9575b5f5ffd5b61005760015481565b6040519081526020015b60405180910390f35b61007d610078366004610256565b6100bc565b005b5f54610091906001600160a01b031681565b6040516001600160a01b039091168152602001610061565b6100916100b73660046102e2565b6101c7565b5f3383836040516020016100d293929190610323565b60408051601f1981840301815291905290505f6100f26180006008610412565b6001600160a01b03166101086180006008610412565b506040516318be12c960e21b90610123908590602401610443565b60408051601f198184030181529181526020820180516001600160e01b03166001600160e01b03199094169390931790925290516101619190610478565b5f604051808303815f865af19150503d805f811461019a576040519150601f19603f3d011682016040523d82523d5f602084013e61019f565b606091505b50509050806101c15760405163d1c1298160e01b815260040160405180910390fd5b50505050565b604080516001600160a01b03831660208083019190915282518083038201815282840184528051908201205f80546001546001600160f81b03196060808801919091529190911b6bffffffffffffffffffffffff19166061860152607585018390526095808601919091528551808603909101815260b5909401909452825192909101919091205b9392505050565b5f5f60208385031215610267575f5ffd5b823567ffffffffffffffff81111561027d575f5ffd5b8301601f8101851361028d575f5ffd5b803567ffffffffffffffff8111156102a3575f5ffd5b8560208260051b84010111156102b7575f5ffd5b6020919091019590945092505050565b80356001600160a01b03811681146102dd575f5ffd5b919050565b5f602082840312156102f2575f5ffd5b61024f826102c7565b81835281816020850137505f828201602090810191909152601f909101601f19169091010190565b6001600160a01b038416815260406020820181905281018290525f6060600584901b830181019083018583605e1936839003015b8782101561040457868503605f190184528235818112610375575f5ffd5b89016001600160a01b03610388826102c7565b168652602081013560208701526040810135601e198236030181126103ab575f5ffd5b0160208101903567ffffffffffffffff8111156103c6575f5ffd5b8036038213156103d4575f5ffd5b606060408801526103e96060880182846102fb565b96505050602083019250602084019350600182019150610357565b509298975050505050505050565b6001600160a01b03818116838216019081111561043d57634e487b7160e01b5f52601160045260245ffd5b92915050565b602081525f82518060208401528060208501604085015e5f604082850101526040601f19601f83011684010191505092915050565b5f82518060208501845e5f92019182525091905056fea26469706673582212203a6748a4b0061a35d81bc29ae3cfcbf502f200eac1d77e2559dfc102e14296c764736f6c634300081c00336080604052348015600e575f5ffd5b505f80546001600160a01b031916331790556101ea8061002d5f395ff3fe60806040526004361061002b575f3560e01c8063a6bba12f14610036578063a8f63c8e14610070575f5ffd5b3661003257005b5f5ffd5b348015610041575f5ffd5b505f54610054906001600160a01b031681565b6040516001600160a01b03909116815260200160405180910390f35b34801561007b575f5ffd5b5061008f61008a366004610115565b610091565b005b5f846001600160a01b03168484846040516100ad9291906101a5565b5f6040518083038185875af1925050503d805f81146100e7576040519150601f19603f3d011682016040523d82523d5f602084013e6100ec565b606091505b505090508061010e57604051633204506f60e01b815260040160405180910390fd5b5050505050565b5f5f5f5f60608587031215610128575f5ffd5b84356001600160a01b038116811461013e575f5ffd5b935060208501359250604085013567ffffffffffffffff811115610160575f5ffd5b8501601f81018713610170575f5ffd5b803567ffffffffffffffff811115610186575f5ffd5b876020828401011115610197575f5ffd5b949793965060200194505050565b818382375f910190815291905056fea26469706673582212203c22f2b1d9fb12a40ceabfb48186c162b66add4dfa517979490aa49f7562e66764736f6c634300081c0033",
  "linkReferences": {},
  "deployedLinkReferences": {},
  "immutableReferences": {},
  "inputSourceName": "project/contracts/L2InteropCenter.sol",
  "buildInfoId": "solc-0_8_28-a7651a76987c95c72790674a9714946147d926e2"
}